:100000000C9458000C9480000C9480000C94800098
:100010000C9480000C9480000C9480000C94800060
:100020000C9480000C9480000C9480000C94800050
:100030000C9480000C9480000C9480000C94800040
:100040000C9418050C9480000C94E6040C94C004E5
:100050000C9480000C9480000C9480000C94800020
:100060000C9462050C94800000000000250028001C
:100070002B00040404040404040402020202020229
:10008000030303030303010204081020408001025C
:1000900004081020010204081020000000080002DB
:1000A00001000003040700000000000000008106BA
:1000B00011241FBECFEFD8E0DEBFCDBF11E0A0E01E
:1000C000B1E0EAE5F2E102C005900D92A835B10772
:1000D000D9F722E0A8E5B1E001C01D92A03DB2072A
:1000E000E1F710E0C8E5D0E004C02197FE010E94CE
:1000F0002509C735D107C9F70E94BA060C942B0908
:100100000C9400009091D6018091D5012FEF3FEF24
:10011000981748F4E92FF0E0EB54FE4F208130E0CF
:100120009F5F9093D601C90108959091D601809167
:10013000D5012FEF3FEF981748F4E92FF0E0EB548B
:10014000FE4F208130E09F5F9093D601C901089552
:1001500008950895AF92BF92CF92DF92EF92FF92EF
:100160000F931F93CF93DF936C017B018B01040FDF
:10017000151FEB015E01AE18BF08C017D10759F07B
:100180006991D601ED91FC910190F081E02DC601BD
:100190000995892B79F7C501DF91CF911F910F91B7
:1001A000FF90EF90DF90CF90BF90AF900895FC014B
:1001B000538D448D252F30E0842F90E0821B930BCC
:1001C000541710F0CF96089501970895FC01918D72
:1001D000828D981761F0A28DAE0FBF2FB11D5D9675
:1001E0008C91928D9F5F9F73928F90E008958FEF17
:1001F0009FEF0895FC01918D828D981731F0828DCB
:10020000E80FF11D858D90E008958FEF9FEF089521
:10021000FC01918D228D892F90E0805C9F4F821B85
:1002200091098F739927089587E292E00E9408014F
:1002300021E0892B09F420E0822F089580E090E0EE
:10024000892B29F00E94140181110C94000008955B
:10025000FC01A48DA80FB92FB11DA35ABF4F2C913B
:10026000848D90E001968F739927848FA689B78932
:100270002C93A089B1898C91837080648C93938D29
:10028000848D981306C00288F389E02D80818F7DCC
:1002900080830895EF92FF920F931F93CF93DF9384
:1002A000EC0181E0888F9B8D8C8D98131AC0E889B2
:1002B000F989808185FF15C09FB7F894EE89FF8981
:1002C0006083E889F98980818370806480839FBF1F
:1002D00081E090E0DF91CF911F910F91FF90EF901F
:1002E0000895F62E0B8D10E00F5F1F4F0F7311272F
:1002F000E02E8C8D8E110CC00FB607FCFACFE8896A
:10030000F989808185FFF5CFCE010E942801F1CFC8
:10031000EB8DEC0FFD2FF11DE35AFF4FF0829FB7DD
:10032000F8940B8FEA89FB8980818062CFCFCF93CD
:10033000DF93EC01888D8823B9F0AA89BB89E8890D
:10034000F9898C9185FD03C0808186FD0DC00FB6B3
:1003500007FCF7CF8C9185FFF2CF808185FFEDCF31
:10036000CE010E942801E9CFDF91CF91089590E05E
:10037000FC01E656FF4F2491FC01EA57FF4F3491F0
:10038000FC01EE58FF4FE491EE23C9F0222339F02F
:10039000233001F1A8F4213019F1223029F1F0E0E5
:1003A000EE0FFF1FE859FF4FA591B4918FB7F89456
:1003B000EC91611126C030953E233C938FBF089588
:1003C0002730A9F02830C9F0243049F78091800007
:1003D0008F7D03C0809180008F7780938000DFCF76
:1003E00084B58F7784BDDBCF84B58F7DFBCF8091C3
:1003F000B0008F778093B000D2CF8091B0008F7D16
:10040000F9CF3E2BDACF3FB7F8948091A1019091BC
:10041000A201A091A301B091A40126B5A89B05C09B
:100420002F3F19F00196A11DB11D3FBFBA2FA92F73
:10043000982F8827BC01CD01620F711D811D911D70
:1004400042E0660F771F881F991F4A95D1F70895DC
:1004500020917901260F3327331F21323105ECF427
:100460002091FD01FC0190E080E0243069F082E001
:100470000895A09179012191AC01475A5E4FA40FD4
:10048000B52FB11D2C930196861798F380917901B1
:10049000680F6093790180E0089581E008951092DB
:1004A000FD0181E08093FC011092D70161E082E1BF
:1004B0000E94B70161E083E10E94B701E9EBF0E03F
:1004C00080818E7F808380818D7F808388E480938C
:1004D000B80085E48093BC000895CF93DF9391E04A
:1004E000909358018823B9F0C091B800D091BA0018
:1004F0008091BC008A7B8093BC0060E082E10E9416
:10050000B70160E083E10E94B7010E944F02D093DF
:10051000BA00C093B800DF91CF9108958F929F9257
:10052000AF92BF92CF92DF92EF92FF920F931F9301
:10053000CF93DF93D0912602D13208F0D7C0182F85
:10054000C09125020E9403026B017C018091FD0194
:1005500081116BC082E08093FD011093FC018FEF4D
:100560008093FB011092FA01D093F901A5E0B2E06B
:10057000E9EDF1E080E0D81391C01092D8018091AC
:10058000D801CC0FC82BC093D8018091D7018130FE
:1005900009F088C01092D7010E9403026B017C0110
:1005A0008091D8018093BB008091FF01909100025F
:1005B000A0910102B0910202892B8A2B8B2BA1F012
:1005C0000E9403020091FF0110910002209101029C
:1005D000309102026C197D098E099F0906171707D1
:1005E0002807390708F442C08091BC0083FDD8CFAA
:1005F00085EC8093BC000E9403026B017C0180911A
:10060000FD01823009F450C08091FB018F3F09F455
:100610006FC08091FB01803209F46CC08091FB01B6
:10062000803309F469C084E026C08091FF01909175
:100630000002A0910102B0910202892B8A2B8B2B20
:1006400009F484CF0E9403028090FF019090000281
:10065000A0900102B09002026C197D098E099F09D9
:1006600086169706A806B90608F070CF8091FE019D
:100670000E946D0285E010920402109226021092F0
:100680000302DF91CF911F910F91FF90EF90DF90C8
:10069000CF90BF90AF909F908F9008959D91919330
:1006A0008F5F69CF85EEA5CF8091FF019091000209
:1006B000A0910102B0910202892B8A2B8B2B09F4A5
:1006C0009ECF0E9403020091FF0110910002209131
:1006D0000102309102026C197D098E099F090617EB
:1006E00017072807390708F08ACFC0CF81E0C3CFAA
:1006F00080E0C1CF82E0BFCF83E0BDCF0895E0911D
:10070000D6018091D501E81730F4F0E0EB54FE4FAC
:10071000808190E008958FEF9FEF08958091D5013B
:100720009091D601891B990B0895CF92DF92EF9299
:10073000FF920F931F93CF93DF937C01CB018A012C
:1007400020910302222389F0EB016B01C40ED51E18
:10075000CC15DD0569F06991D701ED91FC9101900F
:10076000F081E02DC7010995F3CF642F0E94280284
:10077000C801DF91CF911F910F91FF90EF90DF9013
:10078000CF900895CF93DF931F92CDB7DEB76983E3
:10079000209103022223F9F020912602203258F002
:1007A00021E030E0FC013383228390E080E00F9071
:1007B000DF91CF91089580910402E82FF0E0EB5F84
:1007C000FD4F998190838F5F80930402809326026E
:1007D00081E090E0ECCF61E0CE0101960E9428021A
:1007E000F7CF90E080E00895FC0101900020E9F748
:1007F0003197AF01481B590BBC0187E292E00C9482
:10080000AA008F929F92AF92BF920F931F93CF93A4
:10081000DF93CDB7DEB7A1970FB6F894DEBF0FBE5A
:10082000CDBF19A2423008F44AE08E010F5D1F4F80
:10083000842E912CB12CA12CA50194010E940309B6
:10084000E62FB901CA01EA30F4F4E05DD801EE9375
:100850008D01232B242B252B79F790E080E0109736
:1008600019F0CD010E94F403A1960FB6F894DEBFF3
:100870000FBECDBFDF91CF911F910F91BF90AF9071
:100880009F908F900895E95CE1CFCF92DF92EF9235
:10089000FF92CF93DF936B017C016DE287E292E0E0
:1008A0000E944A01EC0166277727CB016C197D096C
:1008B0008E099F094AE00E9401048C0F9D1FDF9161
:1008C000CF91FF90EF90DF90CF900895CF93DF937B
:1008D000BC01990F880B990B97FF0CC00E9445042F
:1008E000EC0184E291E00E94F4038C0F9D1FDF91E4
:1008F000CF9108954AE00E940104F2CFBC01990F04
:10090000880B990B97FD0C9445044AE00C94010464
:1009100085ED8093BC008091FF0190910002A09131
:100920000102B09102020796A11DB11D23E0B69508
:10093000A795979587952A95D1F72091BC0024FD1E
:1009400003C01092FD0108954091FF0150910002F3
:100950006091010270910202452B462B472B69F3EF
:100960000097A105B10541F025E32A95F1F70000B4
:100970000197A109B109E1CF8091FE010C946D02AC
:100980001F920F920FB60F9211242F933F934F9304
:100990005F936F937F938F939F93AF93BF93EF93E7
:1009A000FF9387E292E00E942801FF91EF91BF91AF
:1009B000AF919F918F917F916F915F914F913F91F7
:1009C0002F910F900FBE0F901F9018951F920F92AE
:1009D0000FB60F9211242F938F939F93EF93FF9352
:1009E000E0913702F09138028081E0913D02F09170
:1009F0003E0282FD1BC09081809140028F5F8F7309
:100A000020914102821741F0E0914002F0E0E95D5F
:100A1000FD4F958F80934002FF91EF919F918F91B1
:100A20002F910F900FBE0F901F9018958081F4CFDB
:100A30001F920F920FB60F9211242F933F938F9313
:100A40009F93AF93BF9380919D0190919E01A09140
:100A50009F01B091A00130919C0123E0230F2D371D
:100A600058F50196A11DB11D20939C0180939D0115
:100A700090939E01A0939F01B093A0018091A1014A
:100A80009091A201A091A301B091A4010196A11D92
:100A9000B11D8093A1019093A201A093A301B093F3
:100AA000A401BF91AF919F918F913F912F910F9092
:100AB0000FBE0F901F90189526E8230F0296A11DD8
:100AC000B11DD2CF1F920F920FB60F9211242F9308
:100AD0003F934F935F936F937F938F939F93AF93C6
:100AE000BF93EF93FF938091B900887F803609F41C
:100AF0004AC0F0F5883209F4A7C018F5803109F42E
:100B00009BC0B8F4882309F4F9C0883009F494C074
:100B1000FF91EF91BF91AF919F918F917F916F91D5
:100B20005F914F913F912F910F900FBE0F901F90AB
:100B30001895883109F488C0803251F78093FB0101
:100B400014C0803409F49DC040F48033B9F3883375
:100B5000F9F68093FB0185ECB0C0803509F485C0BF
:100B6000883509F496C0883499F60E948804D0CF5D
:100B7000883909F48CC038F5883729F050F4883664
:100B800011F0803729F683E08093FD0110929B01DC
:100B900057C0883809F47BC0803919F0803809F0D3
:100BA000B7CF80919B01803208F071C0E0919B012A
:100BB00081E08E0F80939B018091BB00F0E0E558AF
:100BC000FE4F80833DC0803B39F0E0F4803A09F469
:100BD00079C0883A09F09CCF84E08093FD0110929F
:100BE0007A0110927901E091A701F091A80109958D
:100BF0008091790181110FC081E080937901109279
:100C0000590109C0803C09F4A6CF883C09F4A3CF60
:100C1000883B09F07DCFE0917A0181E08E0F8093CF
:100C20007A01F0E0E75AFE4F80818093BB009091FB
:100C30007A018091790129C08091D8018093BB000D
:100C400085EC8093BC0064CF9091FA018091F9010A
:100C5000981758F5E091FA0181E08E0F8093FA0120
:100C6000F0E0E752FE4F8081E9CFE091FA0181E0A8
:100C70008E0F8093FA018091BB00F0E0E752FE4FA7
:100C800080839091FA018091F9019817C8F285E864
:100C9000D8CFE091FA0181E08E0F8093FA01809124
:100CA000BB00F0E0E752FE4F80838091FC01811190
:100CB0005CCF81E08093D70184EA8093BC001092DE
:100CC000FD0126CF85EC8093BC001092FD01809140
:100CD0009B01803230F4E0919B01F0E0E558FE4F3B
:100CE000108260919B0170E0E091A501F091A60156
:100CF0008BE791E0099510929B010ACF1092FB01BE
:100D000034CFE7E2F2E01382128288EE93E0A0E0B3
:100D1000B0E084839583A683B78324E031E03183F8
:100D2000208325EC30E03587248724EC30E03787BA
:100D3000268720EC30E0318B208B21EC30E0338BA8
:100D4000228B22EC30E0358B248B26EC30E0378B85
:100D5000268B118E128E138E148EE4ECF2E0138229
:100D6000128284839583A683B78386E191E0918381
:100D700080830895CF93DF9300D000D000D0CDB70B
:100D8000DEB7789484B5826084BD84B5816084BD0B
:100D900085B5826085BD85B5816085BD80916E0019
:100DA000816080936E00109281008091810082604A
:100DB0008093810080918100816080938100809187
:100DC00080008160809380008091B1008460809376
:100DD000B1008091B00081608093B00080917A0072
:100DE000846080937A0080917A00826080937A0098
:100DF00080917A00816080937A0080917A00806887
:100E000080937A001092C1001092D6011092D50101
:100E100010920402109226020E944F0288EA90E08B
:100E20009093A8018093A70189EA90E09093A6018E
:100E30008093A50181E08093030288E680932502D8
:100E40006BE684EC92E00E94C20360E084EC92E0E6
:100E50000E94C20381E00E948E02E0913702F0916D
:100E6000380282E08083E0913302F09134021082F4
:100E7000E0913502F09136028FEC808310923F02B0
:100E8000E0913B02F0913C0286E08083E0913902E0
:100E9000F0913A02808180618083E0913902F09183
:100EA0003A02808188608083E0913902F0913A02B1
:100EB000808180688083E0913902F0913A028081DC
:100EC0008F7D808300E010E021E02093030238E66C
:100ED0003093250210920402109226026BE384ECF8
:100EE00092E00E94C20380E00E948E020E940302F0
:100EF0006B017C018091FD01811165C081E08093CF
:100F0000FD018093FC012FEF2093FB011092FA0169
:100F10003BE03093F9018093D8018091D801806D36
:100F20008093D8018091D701813009F044C110929B
:100F3000D7010E9403026B017C018091D80180934C
:100F4000BB008091FF0190910002A0910102B0913D
:100F50000202892B8A2B8B2BA1F00E940302809026
:100F6000FF0190900002A0900102B09002026C1963
:100F70007D098E099F0986169706A806B90608F40A
:100F800043C08091BC0083FDD8CF85EC8093BC002A
:100F90000E9403026B017C018091FD01813009F404
:100FA0000EC18091FA018C3008F02BC18091FA01BA
:100FB000A9EDB1E0E5EBF1E090E0981751F12D914A
:100FC00021939F5FFACF8091FF0190910002A09141
:100FD0000102B0910202892B8A2B8B2B09F48ACF54
:100FE0000E9403028090FF0190900002A0900102F5
:100FF000B09002026C197D098E099F09861697062A
:10100000A806B90608F076CF8091FE010E946D0215
:1010100080E01092D6018093D5010E949500F82EB1
:101020000E949500612C86299F299093B40180939A
:10103000B3010E949500F82E0E949500412C84294E
:101040009F299093B2018093B1010E949500F82EE0
:101050000E949500FA82198229813A81822B932B72
:101060009093B0018093AF010E949500F82E0E94EA
:101070009500FC821B822B813C81822B932B9093C9
:10108000AE018093AD010E949500F82E0E9495005C
:10109000FE821D822D813E81822B932B9093AC0189
:1010A0008093AB010E949500F82E0E949500212CA0
:1010B00082299F299093AA018093A90187E291E058
:1010C0000E94F40387E391E00E94F4038091B3014E
:1010D0009091B4010E947E048CE391E00E94F4039D
:1010E0008091B1019091B2010E947E0484E491E06C
:1010F0000E94F4038091AF019091B0010E946604B8
:101100008CE491E00E94F40387E391E00E94F403F1
:101110008091AD019091AE010E947E048CE391E03C
:101120000E94F4038091AB019091AC010E947E0477
:1011300084E491E00E94F4038091A9019091AA01B6
:101140000E94660486E591E00E94F40384E291E047
:101150000E94F4030E9403026B017C018DE4882E3F
:1011600099249394A12CB12C0E9403026C197D093F
:101170008E099F09683E734081059105A8F331E00F
:10118000831A9108A108B10888EEC80E83E0D81E22
:10119000E11CF11C81149104A104B10429F701158B
:1011A000110509F491CE0E941401882309F48CCE14
:1011B0000E94000089CE25EE2093BC00E9CE8091EC
:1011C000FF0190910002A0910102B0910202892BCF
:1011D0008A2B8B2B09F4E0CE0E9403028090FF0142
:1011E00090900002A0900102B09002026C197D095B
:1011F0008E099F0986169706A806B90608F0CCCE78
:1012000003CF8CE0D5CEA1E21A2EAA1BBB1BFD0199
:101210000DC0AA1FBB1FEE1FFF1FA217B307E407D5
:10122000F50720F0A21BB30BE40BF50B661F771F2D
:10123000881F991F1A9469F760957095809590950D
:101240009B01AC01BD01CF010895EE0FFF1F05907A
:0A125000F491E02D0994F894FFCF0B
:10125A00000000004A01AA00D70097010801E60031
:10126A00FA0000000000C2039503F1037E038E0317
:10127A0082007F030D0A00416363656C65726F6DBE
:10128A00657465723A200058203D2000207C205960
:10129A00203D2000207C205A203D20004779726F93
:0812AA0073636F70653A2000C8
:00000001FF
